:1000000009C016C015C014C013C012C011C010C062
:100010000FC00EC011241FBECFE9CDBF10E0A0E677
:10002000B0E001C01D92A436B107E1F73AD072C02A
:10003000E7CF07C0EFECF7E03197F1F700C0000021
:1000400001970097B9F70895CF93DF93EC0109C0AA
:10005000C29A84E690E0EDDFC29884E690E0E9DFA2
:1000600021972097A9F7DF91CF910895C298BA9868
:100070008DE087B986B1836C86B93699FECF089535
:1000800097B18F70907F892B87B9369A3699FECFBA
:1000900024B135B1932F80E030E0282B392BC901F2
:1000A0000895E4DF17BABA9A85E090E0CDDF88EED4
:1000B00093E0BFDF82E0E4DF90936300809362000F
:1000C00083E0DEDF9093610080936000C29A8091AC
:1000D0006200909163006AE070E00AD0AADFC298E3
:1000E00080916000909161006AE070E001D0E1CF02
:1000F0005527002480FF02C0060E571F660F771F8A
:100100006115710521F096958795009799F7952FC0
:08011000802D0895F894FFCF43
:00000001FF
